{
  "contractName": "AIMarketplace",
  "abi": [
    {
      "inputs": [],
      "stateMutability": "nonpayable",
      "type": "constructor"
    },
    {
      "anonymous": false,
      "inputs": [
        {
          "indexed": false,
          "internalType": "uint256",
          "name": "modelId",
          "type": "uint256"
        },
        {
          "indexed": false,
          "internalType": "string",
          "name": "name",
          "type": "string"
        },
        {
          "indexed": false,
          "internalType": "uint256",
          "name": "price",
          "type": "uint256"
        },
        {
          "indexed": false,
          "internalType": "address",
          "name": "creator",
          "type": "address"
        }
      ],
      "name": "ModelListed",
      "type": "event"
    },
    {
      "anonymous": false,
      "inputs": [
        {
          "indexed": false,
          "internalType": "uint256",
          "name": "modelId",
          "type": "uint256"
        },
        {
          "indexed": false,
          "internalType": "address",
          "name": "buyer",
          "type": "address"
        }
      ],
      "name": "ModelPurchased",
      "type": "event"
    },
    {
      "anonymous": false,
      "inputs": [
        {
          "indexed": false,
          "internalType": "uint256",
          "name": "modelId",
          "type": "uint256"
        },
        {
          "indexed": false,
          "internalType": "uint8",
          "name": "rating",
          "type": "uint8"
        },
        {
          "indexed": false,
          "internalType": "address",
          "name": "rater",
          "type": "address"
        }
      ],
      "name": "ModelRated",
      "type": "event"
    },
    {
      "inputs": [
        {
          "internalType": "uint256",
          "name": "",
          "type": "uint256"
        }
      ],
      "name": "models",
      "outputs": [
        {
          "internalType": "string",
          "name": "name",
          "type": "string"
        },
        {
          "internalType": "string",
          "name": "description",
          "type": "string"
        },
        {
          "internalType": "uint256",
          "name": "price",
          "type": "uint256"
        },
        {
          "internalType": "address payable",
          "name": "creator",
          "type": "address"
        },
        {
          "internalType": "uint8",
          "name": "ratingCount",
          "type": "uint8"
        },
        {
          "internalType": "uint256",
          "name": "totalRating",
          "type": "uint256"
        }
      ],
      "stateMutability": "view",
      "type": "function"
    },
    {
      "inputs": [],
      "name": "owner",
      "outputs": [
        {
          "internalType": "address",
          "name": "",
          "type": "address"
        }
      ],
      "stateMutability": "view",
      "type": "function"
    },
    {
      "inputs": [
        {
          "internalType": "uint256",
          "name": "",
          "type": "uint256"
        },
        {
          "internalType": "address",
          "name": "",
          "type": "address"
        }
      ],
      "name": "ratings",
      "outputs": [
        {
          "internalType": "bool",
          "name": "",
          "type": "bool"
        }
      ],
      "stateMutability": "view",
      "type": "function"
    },
    {
      "inputs": [
        {
          "internalType": "string",
          "name": "name",
          "type": "string"
        },
        {
          "internalType": "string",
          "name": "description",
          "type": "string"
        },
        {
          "internalType": "uint256",
          "name": "price",
          "type": "uint256"
        }
      ],
      "name": "listModel",
      "outputs": [],
      "stateMutability": "nonpayable",
      "type": "function"
    },
    {
      "inputs": [
        {
          "internalType": "uint256",
          "name": "modelId",
          "type": "uint256"
        }
      ],
      "name": "purchaseModel",
      "outputs": [],
      "stateMutability": "payable",
      "type": "function"
    },
    {
      "inputs": [
        {
          "internalType": "uint256",
          "name": "modelId",
          "type": "uint256"
        },
        {
          "internalType": "uint8",
          "name": "rating",
          "type": "uint8"
        }
      ],
      "name": "rateModel",
      "outputs": [],
      "stateMutability": "nonpayable",
      "type": "function"
    },
    {
      "inputs": [],
      "name": "withdrawFunds",
      "outputs": [],
      "stateMutability": "nonpayable",
      "type": "function"
    },
    {
      "inputs": [
        {
          "internalType": "uint256",
          "name": "modelId",
          "type": "uint256"
        }
      ],
      "name": "getModelDetails",
      "outputs": [
        {
          "internalType": "string",
          "name": "name",
          "type": "string"
        },
        {
          "internalType": "string",
          "name": "description",
          "type": "string"
        },
        {
          "internalType": "uint256",
          "name": "price",
          "type": "uint256"
        },
        {
          "internalType": "address",
          "name": "creator",
          "type": "address"
        },
        {
          "internalType": "uint8",
          "name": "averageRating",
          "type": "uint8"
        }
      ],
      "stateMutability": "view",
      "type": "function"
    }
  ],
  "bytecode": "0x608060405234801561000f575f80fd5b503360025f6101000a81548173ffffffffffffffffffffffffffffffffffffffff021916908373ffffffffffffffffffffffffffffffffffffffff1602179055506118b18061005d5f395ff3fe60806040526004361061007a575f3560e01c80634bab05851161004d5780634bab0585146101245780636a030ca9146101605780638da5cb5b146101a1578063dc746862146101cb5761007a565b806312ee1c0e1461007e5780631c788a9a146100a657806324600fc3146100ce57806331fc042f146100e4575b5f80fd5b348015610089575f80fd5b506100a4600480360381019061009f9190610dd5565b6101e7565b005b3480156100b1575f80fd5b506100cc60048036038101906100c79190610e93565b61034d565b005b3480156100d9575f80fd5b506100e26105b6565b005b3480156100ef575f80fd5b5061010a60048036038101906101059190610ed1565b6106ac565b60405161011b959493929190610fd3565b60405180910390f35b34801561012f575f80fd5b5061014a6004803603810190610145919061105c565b61091d565b60405161015791906110b4565b60405180910390f35b34801561016b575f80fd5b5061018660048036038101906101819190610ed1565b610947565b604051610198969594939291906110ed565b60405180910390f35b3480156101ac575f80fd5b506101b5610ac5565b6040516101c2919061115a565b60405180910390f35b6101e560048036038101906101e09190610ed1565b610aea565b005b5f6040518060c001604052808581526020018481526020018381526020013373ffffffffffffffffffffffffffffffffffffffff1681526020015f60ff1681526020015f815250908060018154018082558091505060019003905f5260205f2090600502015f909190919091505f820151815f019081610267919061136d565b50602082015181600101908161027d919061136d565b50604082015181600201556060820151816003015f6101000a81548173ffffffffffffffffffffffffffffffffffffffff021916908373ffffffffffffffffffffffffffffffffffffffff16021790555060808201518160030160146101000a81548160ff021916908360ff16021790555060a0820151816004015550507f4eed6af0d402cb471979373747ee3f09e77a623bff41d503ce96edacb72d858f60015f8054905061032d9190611469565b848333604051610340949392919061149c565b60405180910390a1505050565b5f805490508210610393576040517f08c379a000000000000000000000000000000000000000000000000000000000815260040161038a90611530565b60405180910390fd5b60015f8381526020019081526020015f205f3373ffffffffffffffffffffffffffffffffffffffff1673ffffffffffffffffffffffffffffffffffffffff1681526020019081526020015f205f9054906101000a900460ff161561042c576040517f08c379a0000000000000000000000000000000000000000000000000000000008152600401610423906115be565b60405180910390fd5b5f8160ff16118015610442575060058160ff1611155b610481576040517f08c379a000000000000000000000000000000000000000000000000000000000815260040161047890611626565b60405180910390fd5b6001805f8481526020019081526020015f205f3373ffffffffffffffffffffffffffffffffffffffff1673ffffffffffffffffffffffffffffffffffffffff1681526020019081526020015f205f6101000a81548160ff0219169083151502179055505f82815481106104f7576104f6611644565b5b905f5260205f209060050201600301601481819054906101000a900460ff168092919061052390611671565b91906101000a81548160ff021916908360ff160217905550508060ff165f838154811061055357610552611644565b5b905f5260205f2090600502016004015f8282546105709190611699565b925050819055507f4129c8696bb756892ebbda9c4396a685357b1f8eddd505fee0f194e56f8c9a2b8282336040516105aa939291906116cc565b60405180910390a15050565b60025f9054906101000a900473ffffffffffffffffffffffffffffffffffffffff1673ffffffffffffffffffffffffffffffffffffffff163373ffffffffffffffffffffffffffffffffffffffff1614610645576040517f08c379a000000000000000000000000000000000000000000000000000000000815260040161063c90611771565b60405180910390fd5b60025f9054906101000a900473ffffffffffffffffffffffffffffffffffffffff1673ffffffffffffffffffffffffffffffffffffffff166108fc4790811502906040515f60405180830381858888f193505050501580156106a9573d5f803e3d5ffd5b50565b6060805f805f808054905086106106f8576040517f08c379a00000000000000000000000000000000000000000000000000000000081526004016106ef90611530565b60405180910390fd5b5f80878154811061070c5761070b611644565b5b905f5260205f2090600502016040518060c00160405290815f82018054610732906111a0565b80601f016020809104026020016040519081016040528092919081815260200182805461075e906111a0565b80156107a95780601f10610780576101008083540402835291602001916107a9565b820191905f5260205f20905b81548152906001019060200180831161078c57829003601f168201915b505050505081526020016001820180546107c2906111a0565b80601f01602080910402602001604051908101604052809291908181526020018280546107ee906111a0565b80156108395780601f1061081057610100808354040283529160200191610839565b820191905f5260205f20905b81548152906001019060200180831161081c57829003601f168201915b5050505050815260200160028201548152602001600382015f9054906101000a900473ffffffffffffffffffffffffffffffffffffffff1673ffffffffffffffffffffffffffffffffffffffff1673ffffffffffffffffffffffffffffffffffffffff1681526020016003820160149054906101000a900460ff1660ff1660ff16815260200160048201548152505090505f816080015160ff16116108de575f6108f6565b806080015160ff168160a001516108f591906117bc565b5b9150805f015181602001518260400151836060015195509550955095505091939590929450565b6001602052815f5260405f20602052805f5260405f205f915091509054906101000a900460ff1681565b5f8181548110610955575f80fd5b905f5260205f2090600502015f91509050805f018054610974906111a0565b80601f01602080910402602001604051908101604052809291908181526020018280546109a0906111a0565b80156109eb5780601f106109c2576101008083540402835291602001916109eb565b820191905f5260205f20905b8154815290600101906020018083116109ce57829003601f168201915b505050505090806001018054610a00906111a0565b80601f0160208091040260200160405190810160405280929190818152602001828054610a2c906111a0565b8015610a775780601f10610a4e57610100808354040283529160200191610a77565b820191905f5260205f20905b815481529060010190602001808311610a5a57829003601f168201915b505050505090806002015490806003015f9054906101000a900473ffffffffffffffffffffffffffffffffffffffff16908060030160149054906101000a900460ff16908060040154905086565b60025f9054906101000a900473ffffffffffffffffffffffffffffffffffffffff1681565b5f805490508110610b30576040517f08c379a0000000000000000000000000000000000000000000000000000000008152600401610b2790611530565b60405180910390fd5b5f8181548110610b4357610b42611644565b5b905f5260205f209060050201600201543414610b94576040517f08c379a0000000000000000000000000000000000000000000000000000000008152600401610b8b90611836565b60405180910390fd5b5f8181548110610ba757610ba6611644565b5b905f5260205f2090600502016003015f9054906101000a900473ffffffffffffffffffffffffffffffffffffffff1673ffffffffffffffffffffffffffffffffffffffff166108fc3490811502906040515f60405180830381858888f19350505050158015610c18573d5f803e3d5ffd5b507fc8581808129c51c0416692a5ea1b58e080ae8f21e384eefe2f2dc85d231d12ba8133604051610c4a929190611854565b60405180910390a150565b5f604051905090565b5f80fd5b5f80fd5b5f80fd5b5f80fd5b5f601f19601f8301169050919050565b7f4e487b71000000000000000000000000000000000000000000000000000000005f52604160045260245ffd5b610cb482610c6e565b810181811067ffffffffffffffff82111715610cd357610cd2610c7e565b5b80604052505050565b5f610ce5610c55565b9050610cf18282610cab565b919050565b5f67ffffffffffffffff821115610d1057610d0f610c7e565b5b610d1982610c6e565b9050602081019050919050565b828183375f83830152505050565b5f610d46610d4184610cf6565b610cdc565b905082815260208101848484011115610d6257610d61610c6a565b5b610d6d848285610d26565b509392505050565b5f82601f830112610d8957610d88610c66565b5b8135610d99848260208601610d34565b91505092915050565b5f819050919050565b610db481610da2565b8114610dbe575f80fd5b50565b5f81359050610dcf81610dab565b92915050565b5f805f60608486031215610dec57610deb610c5e565b5b5f84013567ffffffffffffffff811115610e0957610e08610c62565b5b610e1586828701610d75565b935050602084013567ffffffffffffffff811115610e3657610e35610c62565b5b610e4286828701610d75565b9250506040610e5386828701610dc1565b9150509250925092565b5f60ff82169050919050565b610e7281610e5d565b8114610e7c575f80fd5b50565b5f81359050610e8d81610e69565b92915050565b5f8060408385031215610ea957610ea8610c5e565b5b5f610eb685828601610dc1565b9250506020610ec785828601610e7f565b9150509250929050565b5f60208284031215610ee657610ee5610c5e565b5b5f610ef384828501610dc1565b91505092915050565b5f81519050919050565b5f82825260208201905092915050565b5f5b83811015610f33578082015181840152602081019050610f18565b5f8484015250505050565b5f610f4882610efc565b610f528185610f06565b9350610f62818560208601610f16565b610f6b81610c6e565b840191505092915050565b610f7f81610da2565b82525050565b5f73ffffffffffffffffffffffffffffffffffffffff82169050919050565b5f610fae82610f85565b9050919050565b610fbe81610fa4565b82525050565b610fcd81610e5d565b82525050565b5f60a0820190508181035f830152610feb8188610f3e565b90508181036020830152610fff8187610f3e565b905061100e6040830186610f76565b61101b6060830185610fb5565b6110286080830184610fc4565b9695505050505050565b61103b81610fa4565b8114611045575f80fd5b50565b5f8135905061105681611032565b92915050565b5f806040838503121561107257611071610c5e565b5b5f61107f85828601610dc1565b925050602061109085828601611048565b9150509250929050565b5f8115159050919050565b6110ae8161109a565b82525050565b5f6020820190506110c75f8301846110a5565b92915050565b5f6110d782610f85565b9050919050565b6110e7816110cd565b82525050565b5f60c0820190508181035f8301526111058189610f3e565b905081810360208301526111198188610f3e565b90506111286040830187610f76565b61113560608301866110de565b6111426080830185610fc4565b61114f60a0830184610f76565b979650505050505050565b5f60208201905061116d5f830184610fb5565b92915050565b7f4e487b71000000000000000000000000000000000000000000000000000000005f52602260045260245ffd5b5f60028204905060018216806111b757607f821691505b6020821081036111ca576111c9611173565b5b50919050565b5f819050815f5260205f209050919050565b5f6020601f8301049050919050565b5f82821b905092915050565b5f6008830261122c7fffffffffffffffffffffffffffffffffffffffffffffffffffffffffffffffff826111f1565b61123686836111f1565b95508019841693508086168417925050509392505050565b5f819050919050565b5f61127161126c61126784610da2565b61124e565b610da2565b9050919050565b5f819050919050565b61128a83611257565b61129e61129682611278565b8484546111fd565b825550505050565b5f90565b6112b26112a6565b6112bd818484611281565b505050565b5b818110156112e0576112d55f826112aa565b6001810190506112c3565b5050565b601f821115611325576112f6816111d0565b6112ff846111e2565b8101602085101561130e578190505b61132261131a856111e2565b8301826112c2565b50505b505050565b5f82821c905092915050565b5f6113455f198460080261132a565b1980831691505092915050565b5f61135d8383611336565b9150826002028217905092915050565b61137682610efc565b67ffffffffffffffff81111561138f5761138e610c7e565b5b61139982546111a0565b6113a48282856112e4565b5f60209050601f8311600181146113d5575f84156113c3578287015190505b6113cd8582611352565b865550611434565b601f1984166113e3866111d0565b5f5b8281101561140a578489015182556001820191506020850194506020810190506113e5565b868310156114275784890151611423601f891682611336565b8355505b6001600288020188555050505b505050505050565b7f4e487b71000000000000000000000000000000000000000000000000000000005f52601160045260245ffd5b5f61147382610da2565b915061147e83610da2565b92508282039050818111156114965761149561143c565b5b92915050565b5f6080820190506114af5f830187610f76565b81810360208301526114c18186610f3e565b90506114d06040830185610f76565b6114dd6060830184610fb5565b95945050505050565b7f4d6f64656c20646f6573206e6f742065786973742e00000000000000000000005f82015250565b5f61151a601583610f06565b9150611525826114e6565b602082019050919050565b5f6020820190508181035f8301526115478161150e565b9050919050565b7f596f75206861766520616c72656164792072617465642074686973206d6f64655f8201527f6c2e000000000000000000000000000000000000000000000000000000000000602082015250565b5f6115a8602283610f06565b91506115b38261154e565b604082019050919050565b5f6020820190508181035f8301526115d58161159c565b9050919050565b7f526174696e67206d757374206265206265747765656e203120616e6420352e005f82015250565b5f611610601f83610f06565b915061161b826115dc565b602082019050919050565b5f6020820190508181035f83015261163d81611604565b9050919050565b7f4e487b71000000000000000000000000000000000000000000000000000000005f52603260045260245ffd5b5f61167b82610e5d565b915060ff820361168e5761168d61143c565b5b600182019050919050565b5f6116a382610da2565b91506116ae83610da2565b92508282019050808211156116c6576116c561143c565b5b92915050565b5f6060820190506116df5f830186610f76565b6116ec6020830185610fc4565b6116f96040830184610fb5565b949350505050565b7f4f6e6c7920746865206f776e65722063616e2077697468647261772066756e645f8201527f732e000000000000000000000000000000000000000000000000000000000000602082015250565b5f61175b602283610f06565b915061176682611701565b604082019050919050565b5f6020820190508181035f8301526117888161174f565b9050919050565b7f4e487b71000000000000000000000000000000000000000000000000000000005f52601260045260245ffd5b5f6117c682610da2565b91506117d183610da2565b9250826117e1576117e061178f565b5b828204905092915050565b7f496e636f72726563742076616c75652073656e742e00000000000000000000005f82015250565b5f611820601583610f06565b915061182b826117ec565b602082019050919050565b5f6020820190508181035f83015261184d81611814565b9050919050565b5f6040820190506118675f830185610f76565b6118746020830184610fb5565b939250505056fea2646970667358221220cf5350c398056cc82cef8c32bd07bee420595833479c8ff749e42c1e8c26760464736f6c63430008150033",
  "immutableReferences": {},
  "source": "// SPDX-License-Identifier: MIT\r\npragma solidity ^0.8.0;\r\n\r\ncontract AIMarketplace {\r\n    struct Model {\r\n        string name;\r\n        string description;\r\n        uint256 price; // Price in Wei\r\n        address payable creator; // Address of the model creator\r\n        uint8 ratingCount; // Total number of ratings\r\n        uint256 totalRating; // Sum of ratings for average calculation\r\n    }\r\n\r\n    Model[] public models; // Array to store all models\r\n    mapping(uint256 => mapping(address => bool)) public ratings; // Mapping to track if an address has rated a model\r\n    address public owner; // Owner of the contract\r\n\r\n    event ModelListed(uint256 modelId, string name, uint256 price, address creator);\r\n    event ModelPurchased(uint256 modelId, address buyer);\r\n    event ModelRated(uint256 modelId, uint8 rating, address rater);\r\n\r\n    constructor() {\r\n        owner = msg.sender; // Set the contract deployer as the owner\r\n    }\r\n\r\n    // Function to list a new AI model\r\n    function listModel(string memory name, string memory description, uint256 price) public {\r\n        models.push(Model({\r\n            name: name,\r\n            description: description,\r\n            price: price,\r\n            creator: payable(msg.sender),\r\n            ratingCount: 0,\r\n            totalRating: 0\r\n        }));\r\n        \r\n        emit ModelListed(models.length - 1, name, price, msg.sender);\r\n    }\r\n\r\n    // Function to purchase an AI model\r\n    function purchaseModel(uint256 modelId) public payable {\r\n        require(modelId < models.length, \"Model does not exist.\");\r\n        require(msg.value == models[modelId].price, \"Incorrect value sent.\");\r\n\r\n        models[modelId].creator.transfer(msg.value); // Transfer payment to the model creator\r\n        \r\n        emit ModelPurchased(modelId, msg.sender);\r\n    }\r\n\r\n    // Function to rate a purchased AI model\r\n    function rateModel(uint256 modelId, uint8 rating) public {\r\n        require(modelId < models.length, \"Model does not exist.\");\r\n        require(!ratings[modelId][msg.sender], \"You have already rated this model.\");\r\n        require(rating > 0 && rating <= 5, \"Rating must be between 1 and 5.\");\r\n\r\n        ratings[modelId][msg.sender] = true; // Mark that this user has rated the model\r\n\r\n        models[modelId].ratingCount++;\r\n        models[modelId].totalRating += rating;\r\n\r\n        emit ModelRated(modelId, rating, msg.sender);\r\n    }\r\n\r\n    // Function to withdraw accumulated funds by the owner\r\n    function withdrawFunds() public {\r\n        require(msg.sender == owner, \"Only the owner can withdraw funds.\");\r\n        \r\n        payable(owner).transfer(address(this).balance); // Transfer all balance to the owner\r\n    }\r\n\r\n    // Function to get details of a specific AI model\r\n    function getModelDetails(uint256 modelId) public view returns (string memory name, string memory description, uint256 price, address creator, uint8 averageRating) {\r\n        require(modelId < models.length, \"Model does not exist.\");\r\n        \r\n        Model memory model = models[modelId];\r\n        \r\n        averageRating = model.ratingCount > 0 ? uint8(model.totalRating / model.ratingCount) : 0;\r\n\r\n        return (model.name, model.description, model.price, model.creator, averageRating);\r\n    }\r\n}\r\n",
  "sourcePath": "C:\\Users\\Olegator\\Downloads\\Blockchain\\AI Marketplace\\contracts\\AIMarketplace.sol",
  "compiler": {
    "name": "solc",
    "version": "0.8.21+commit.d9974bed.Emscripten.clang"
  },
  "schemaVersion": "3.4.16",
  "updatedAt": "2024-09-30T06:29:02.771Z",
  "devdoc": {
    "kind": "dev",
    "methods": {},
    "version": 1
  },
  "userdoc": {
    "kind": "user",
    "methods": {},
    "version": 1
  }
}